:0B006C00EF1FAC0670011E4C70F62266
:0D005E00EFD3940040077E6EDEFE1F80F39E
:01006B002272
:07007F00D288D2A8D2AF2203
:07008600D28AD2AAD2AF22F8
:0800770012007F12008680F8E0
:03000300020016E2
:10001600C0E0C0D075D000C004C006C0077F107E07
:100026002712006C20B202B2A0D007D006D004D0AE
:04003600D0D0E03214
:0300130002003AAE
:10003A00C0E0C0D075D000C004C006C0077F107EE3
:10004A002712006C20B302B2A1D007D006D004D088
:04005A00D0D0E032F0
:03000000020006F5
:0C000600787FE4F6D8FD758107020077D2
:00000001FF
