:1001060010083F065B4F666D7D077F6F777C395E13
:020116007971FD
:0B011900EF1FAC0670011E4C70F622B8
:10008F00E4FBFAEA7053EBB40800504D9000A2F86D
:10009F002828730200BA0200BE0200C20200C60284
:1000AF0000CA0200D20200DA0200E2D2A4800ED20D
:1000BF00A48012D2A48016D2A4801AC2A4D2A3D232
:1000CF00A28016C2A4D2A3C2A2800EC2A4C2A3D27F
:1000DF00A28006C2A4C2A3C2A274082BF8E6F580C0
:1000EF007F647E00120119E4F5800BBB00010AEB5F
:0700FF0064084A708E80893D
:03000000020003F8
:0C000300787FE4F6D8FD75811702004AF2
:10000F0002008FE493A3F8E493A34003F68001F278
:10001F0008DFF48029E493A3F85407240CC8C333F2
:10002F00C4540F4420C8834004F456800146F6DFC1
:10003F00E4800B0102040810204080900106E47E4A
:10004F00019360BCA3FF543F30E509541FFEE493B6
:10005F00A360010ECF54C025E060A840B8E493A37D
:10006F00FAE493A3F8E493A3C8C582C8CAC583CAA8
:10007F00F0A3C8C582C8CAC583CADFE9DEE780BE60
:0101180000E6
:00000001FF
