:0A00FC0008080102040810204080EB
:0B00F100EF1FAC0670011E4C70F622E1
:10008F00740829F8E6FF1200A17F507EC31200F119
:02009F00E4FF7C
:0200A100AD07A9
:1000A300E4FBFAEDC4131313540124FF92B4ED25BA
:1000B300E0FDC2B67F017E001200F1D2B60BBB0099
:1000C300010AEB64084A70DBC2B57F017E001200AF
:0300D300F1D2B5B2
:0100D6002207
:1000D700E4F580E4F912008F09B908F97906E9C354
:0A00E700940140EF12008F1980F41D
:03000000020003F8
:0C000300787FE4F6D8FD75810F02004AFA
:10000F000200D7E493A3F8E493A34003F68001F230
:10001F0008DFF48029E493A3F85407240CC8C333F2
:10002F00C4540F4420C8834004F456800146F6DFC1
:10003F00E4800B01020408102040809000FCE47E55
:10004F00019360BCA3FF543F30E509541FFEE493B6
:10005F00A360010ECF54C025E060A840B8E493A37D
:10006F00FAE493A3F8E493A3C8C582C8CAC583CAA8
:10007F00F0A3C8C582C8CAC583CADFE9DEE780BE60
:0101060000F8
:00000001FF
