:1000D100E4F50EF50FF5137B647DF67FFF12012326
:1000E100E50E700C050FE50FB4460B750E01800689
:1000F100D50F03E4F50EAF0F1200037F017E00124E
:04010100010580DC98
:10013C00010A00010C00010D00010B000208000077
:100123008F0A8D0C8B0D85130B438901850A8C85F2
:090133000C8AD2A9D2AFD28C22B1
:030003008F0B223E
:03000B0002009A56
:04009A00C0E0C0D032
:10009E00850A8C850C8A0509E50970020508C39549
:1000AE000DE50894004006750800750900D3E509B2
:0E00BE00950BE50894005004D2A18002C2A167
:0500CC00D0D0D0E032AD
:0B014D00EF1FAC0670011E4C70F62284
:10010500D3EF9400EE940040147D6E7C00ED1D70DD
:0D011500011CED4C70F7EF1F70E61E80E33B
:0101220022BA
:0300000002000EED
:0C000E00787FE4F6D8FD758113020055E0
:10001A000200D1E493A3F8E493A34003F68001F22B
:10002A0008DFF48029E493A3F85407240CC8C333E7
:10003A00C4540F4420C8834004F456800146F6DFB6
:10004A00E4800B010204081020408090013CE47E09
:10005A00019360BCA3FF543F30E509541FFEE493AB
:10006A00A360010ECF54C025E060A840B8E493A372
:10007A00FAE493A3F8E493A3C8C582C8CAC583CA9D
:10008A00F0A3C8C582C8CAC583CADFE9DEE780BE55
:01014C0000B2
:00000001FF
