:10011200181001E5A9F5AAF4A8E0212AACBBEAAAC5
:10012200F3207F80807F00FF111F08087FBFDFEF71
:04013200F7FBFDFEDC
:1001370029F8E6FF1200DCE4FF1200DC7F647E0092
:0B014700EF1FAC0670011E4C70F6228A
:0200DC00AD076E
:1000DE00E4FBFAEDC4131313540124FF92B4ED257F
:1000EE00E0FDC2B67F017E00120147D2B60BBB0007
:1000FE00010AEB64084A70DBC2B57F017E00120173
:03010E0047D2B520
:0101110022CB
:10008F00E4F9740829F8E6F580741012013709B9FC
:10009F0008F07F007ECA120147E4F9740829F8E6D8
:1000AF00F580741812013709B908F07F007ECA1263
:1000BF000147E4F9740829F8E6F580742012013736
:0D00CF0009B908F07F007ECA12014780B316
:03000000020003F8
:0C000300787FE4F6D8FD75812702004AE2
:10000F0002008FE493A3F8E493A34003F68001F278
:10001F0008DFF48029E493A3F85407240CC8C333F2
:10002F00C4540F4420C8834004F456800146F6DFC1
:10003F00E4800B0102040810204080900112E47E3E
:10004F00019360BCA3FF543F30E509541FFEE493B6
:10005F00A360010ECF54C025E060A840B8E493A37D
:10006F00FAE493A3F8E493A3C8C582C8CAC583CAA8
:10007F00F0A3C8C582C8CAC583CADFE9DEE780BE60
:0101360000C8
:00000001FF
