:1002380010093F065B4F666D7D077F6F777C395EDF
:050248007971010800BE
:04024E007FE87E03C4
:0B025200EF1FAC0670011E4C70F6227E
:10000300E4F5197590F7E59064F7602812024EAF96
:1000130090EF2449601124E0601224F060132470EF
:100023007012751901800D751905800875190980FD
:100033000375190D7590FBE59064FB602812024E61
:10004300AF90EF2445601124E0601224F060132484
:10005300707012751902800D751906800875190ADA
:10006300800375190E7590FDE59064FD60281202FA
:100073004EAF90EF2443601124E0601224F060132C
:1000830024707012751903800D751907800875198E
:100093000B800375190F7590FEE59064FE602812BE
:1000A300024EAF90EF2442601124E0601224F0600E
:1000B3001324707012751904800D75190880087562
:0900C300190C8003751910AF1926
:0100CC002211
:1001DC0075900FE590640F602712024EAF90EF24DC
:1001EC00F5601024FE60111460132407701275085A
:1001FC0001800D75080280087508038003750804DA
:10020C007590F0AF90EF2450601124E0601124F051
:10021C00601124707013850808800E7404800674B5
:0B022C00088002740C2508F508AF08DC
:0102370022A4
:10015900E4F91201DCA907E960F8E4FAFBC3EB94BE
:1001690008EA6480948050EAEA7053EBB4080050BE
:100179004D900181F828287302019902019D02011D
:10018900A10201A50201A90201B10201B90201C13D
:10019900D2A4800ED2A48012D2A48016D2A4801A2E
:1001A900C2A4D2A3D2A28016C2A4D2A3C2A2800E94
:1001B900C2A4C2A3D2A28006C2A4C2A3C2A27408C6
:1001C90029F8E6F5807F647E001202520BBB00011C
:0301D9000A808A0F
:030000000200CD2E
:0C00CD00787FE4F6D8FD7581190201145B
:1000D900020159E493A3F8E493A34003F68001F2E3
:1000E90008DFF48029E493A3F85407240CC8C33328
:1000F900C4540F4420C8834004F456800146F6DFF7
:10010900E4800B0102040810204080900238E47E4C
:10011900019360BCA3FF543F30E509541FFEE493EB
:10012900A360010ECF54C025E060A840B8E493A3B2
:10013900FAE493A3F8E493A3C8C582C8CAC583CADD
:10014900F0A3C8C582C8CAC583CADFE9DEE780BE95
:01024D0000B0
:00000001FF
