:100293001202F7E527C4540F2408F8E6F51DE527F5
:1002A300540F2408F8E6F51E751F767B007A007953
:0802B3001D7D0612014880DBED
:1002D90010083F065B4F666D7D077F6F777C395E3F
:0202E900797129
:060148008B208A218922B0
:10014E00E4F523ED14F524F523E523C39408507B41
:10015E00E523B40800504D90016CF8282873020175
:10016E008402018802018C02019002019402019C1A
:10017E000201A40201ACD2A4800ED2A48012D2A499
:10018E008016D2A4801AC2A4D2A3D2A28016C2A470
:10019E00D2A3C2A2800EC2A4C2A3D2A28006C2A4BF
:1001AE00C2A3C2A2C3E5239524FFE49400AB20AA08
:1001BE0021A9228F82F583120266F5807F647E006C
:0B01CE001202ECE4F58005230201574B
:0101D9002203
:0902F700D288D2A8D2AFD2B22203
:03000300020006F2
:10000600C0E0C0F0C083C082C0D075D000C000C0C0
:0D00160001C002C003C004C005C006C00741
:10002300751800751900751A00751B00751C0030D2
:10003300B20302012D7518037519E820B21EE519E4
:10004300451860187F017E001202ECE5191519703E
:10005300021518E519451870E202012D20B20302BA
:1000630001157518017519F430B21EE519451860AC
:10007300187F017E001202ECE5191519700215189C
:10008300E519451870E202012D751A00751B0075FC
:10009300180275195820B21DE519451860177F011C
:1000A3007E001202ECE519151970021518E51945C1
:1000B3001870E2807575180075191430B21FE519B0
:1000C300451860197F0A7E001202EC051CE519151C
:1000D3001970021518E519451870E0804DE51CC329
:1000E300940840097425251AF8E64480F6742525FA
:1000F3001AF8C000E6C313D000F6751C00051BE513
:100103001BC394084089051AE51AC39404500302DB
:10011300008FE528F465276011751A00E51AC3946A
:0A0123000450077425251AF8760031
:10012D00D007D006D005D004D003D002D001D00026
:0B013D00D0D0D082D083D0F0D0E032D0
:0B02EC00EF1FAC0670011E4C70F622E4
:1002BB00D3EF9400EE940040147D6E7C00ED1D7026
:0D02CB00011CED4C70F7EF1F70E61E80E384
:0102D8002203
:030000000201DA20
:0C01DA00787FE4F6D8FD75812802022130
:10026600BB010CE58229F582E5833AF583E022504D
:1002760006E92582F8E622BBFE06E92582F8E22297
:0D028600E58229F582E5833AF583E49322B1
:1001E600020293E493A3F8E493A34003F68001F29A
:1001F60008DFF48029E493A3F85407240CC8C3331A
:10020600C4540F4420C8834004F456800146F6DFE8
:10021600E4800B01020408102040809002D9E47E9D
:10022600019360BCA3FF543F30E509541FFEE493DD
:10023600A360010ECF54C025E060A840B8E493A3A4
:10024600FAE493A3F8E493A3C8C582C8CAC583CACF
:10025600F0A3C8C582C8CAC583CADFE9DEE780BE87
:0102EB000012
:00000001FF
