:03000000020006F5
:0C000600787FE4F6D8FD75813B02004DC8
:04020A00C101C1006D
:1001D900C2A77F0A1201EBD2A7C2A0C288D2A8D2B5
:0201E900AF2243
:1000FC007515FF7516037517FF7518FF7519FFE455
:10010C00F51A751BFF751CFF90FE007409F090FE2C
:10011C001F74C8F090FE067401F0A3741BF090FEDF
:10012C00047401F090FE08741AF090FE017404F04F
:10013C0090FE10E515F0A3E516F0A3E517F0A3E586
:10014C0018F0A3E519F0A3E51AF0A3E51BF0A3E55D
:08015C001CF090FE007408F095
:010164002278
:0300030002009266
:10009200C0E0C083C082C0D075D000C004C005C01B
:0300A20006C0078E
:1000A500C2AFC28990FE11E0FFF51FA3E0FEF51D6A
:1000B500A3E0FDF51E90FE03E030E01A90FE10E08F
:1000C500F5218F228E238D2490FE14E0F525A3E0E3
:1000D500F526A3E0F52790FE017404F090FE047464
:0600E50001F0D2AFD2A829
:1000EB00D007D006D005D004D0D0D082D083D0E0BA
:0100FB0032D2
:1001B100AF26AE27BF0111BE0108C290C200D20115
:1001C1008006D290C200C201BF020CBE0105C291DD
:0701D100C20022D291C2001E
:0101D8002204
:10016500750882750903750A01750B10E4F50CF520
:100175003B750D03750E3090FE02E020E42D30E353
:100185002A30E22790FE10E508F0A3E509F0A3E583
:100195000AF0A3E50BF0A3E50CF0A3E50DF0A3E54C
:0B01A5000EF0753B0190FE017401F0AC
:0101B000222C
:1001EB00AD071FED600A7EFFAD061EED60F280F8D5
:0101FB0022E1
:0E01FC001201D91200FC3000FD1201B180F892
:100012000201FCE493A3F8E493A34003F68001F207
:1000220008DFF48029E493A3F85407240CC8C333EF
:10003200C4540F4420C8834004F456800146F6DFBE
:10004200E4800B010204081020408090020AE47E42
:10005200019360BCA3FF543F30E509541FFEE493B3
:10006200A360010ECF54C025E060A840B8E493A37A
:10007200FAE493A3F8E493A3C8C582C8CAC583CAA5
:10008200F0A3C8C582C8CAC583CADFE9DEE780BE5D
:01020E0000EF
:00000001FF
