:10027A00E4F508F509F50A12056F1205BC0508E54B
:10028A000875F03284E5F070141203C8E4FBFA79B9
:10029A002078411200031201478E098F0AC3E5092B
:1002AA00648094805010C3E4950AF50AE49509F530
:1002BA0009750B2D8003750B20AE09AF0A7C037DEF
:1002CA00E81201E1EF2430F50CAE09AF0A7C037D98
:1002DA00E81201E1AA04AB057D647C00AF03AE021B
:1002EA001201E1EF2430F50D7D647C00AF03AE020C
:1002FA001201E1AA04AB057D0A7C00AF03AE02122B
:10030A0001E1EF2430F50E750F2E7D0A7C00AF0354
:10031A00AE021201E1ED2430F510E4F511FB7A008A
:0B032A00790BFD7F05120335020287EE
:10055400C2A6C2A5C2A78F807F017E00120536D233
:0B056400A77F017E00120536C2A7220F
:0A04CC00AB13AA14A9151201C8FF12
:1004D600D2A6C2A5C2A78F807F017E00120536D2A2
:0B04E600A77F017E00120536C2A7228E
:10056F007F381205547F0C1205547F061205547FF5
:04057F00010205541C
:080335008F128B138A14891545
:10033D00E4F516EDD3940140030203C7E512940FC3
:10034D005078EDC394015039AB13AA14A9151201BD
:10035D00C86067C374109512FFE516C39FE5125070
:10036D0006248025168004251624B0FF120554128C
:10037D0004CC74012515F515E43514F51405168016
:10038D00C7AB13AA14A9151201C8602EC37410951A
:10039D0012FFE516C39FE512500624C025168004F2
:1003AD0025162470FF1205541204CC74012515F581
:0A03BD0015E43514F514051680C789
:0103C7002213
:0505C3007F0102055458
:10058300C2B77F4B7E001205B1D2B77F027E000255
:0205930005B1B0
:10044300E4F51930B712E519C39414500B05197F5D
:10045300017E001205B180EBE519C3941440037FBC
:100463000122E4F51920B712E519C39414500B05C2
:10047300197F017E001205B180EBE519C394144086
:06048300037F01227F004F
:010489002250
:0705BC001205831204432223
:02048A008F19C8
:10048C00E4F51AF51BF51AAF1AE519A8070880024E
:10049C00C313D8FC5401F51B600FC2B70000D2B7D0
:1004AC007F067E001205B1800DC2B77F067E00125A
:0F04BC0005B1D2B70000051AE51AC3940840C86D
:0104CB00220E
:10051600E4F51BC2B70000D2B7000030B705751B63
:0F052600018003E4F51B7F057E001205B1AF1BBA
:0105350022A3
:1004F100E4F519FFF51AF519120516AE19EFA8065C
:10050100088002C333D8FC421A0519E519C39408BF
:0405110040E6AF1AF7
:0105150022C3
:100595001205831204437FCC12048A7F4402048A25
:1003C800E4FFF512F513F5141205951205831204CE
:1003D800437FCC12048A7FBE12048A1204F18F1262
:1003E8001204F1EFFE7C00E42512F514EC3EF5133F
:1003F80054F8FEEEB4F821E514F4FFE513F4FEEF2B
:100408002401F514E43EF513FCAD14E412010EE4E6
:10041800FBFA798078BD800FAC13AD14E412010E9D
:10042800E4FBFA7980783D1200038F188E178D1639
:0A0438008C15AF18AE17AD16AC1509
:010442002297
:0B05B100EF1FAC0670011E4C70F6221C
:10053600D3EF9400EE940040147D6E7C00ED1D70A8
:0D054600011CED4C70F7EF1F70E61E80E306
:010553002285
:10000300EC4D6011E8497017ED33EC3304600DE4F7
:10001300FCFFFEFD22E933E8330470F80201B3125A
:10002300017E58046009E4CC24815006285009025B
:1000330001BD2840030201BAC0E0EB4A7044B98015
:1000430006D0E0FB0201A9EF4E701CBD8008EBFF58
:10005300EAFEE9FD80EBE98DF0A4FEE5F00200EC99
:10006300E9CDF9EAFEEBFFEF89F0A4FCE5F0CE89D8
:10007300F0A42EFFE435F0CD89F0A42DFEE435F095
:100083008067EF4E7005BD80D780C3EF8BF0A4ACC3
:10009300F0EE8BF0A42CFCE435F0F8EF8AF0A42CFE
:1000A300E5F038FCE433CB8DF0A42CFCE5F03BF811
:1000B300EE8AF0A42CFCE5F038F8E433CF89F0A401
:1000C3002CFCE5F038CF3400CE89F0A42FFFE5F007
:1000D3003EFEE433C98DF0A42EFEE5F039CD8AF05F
:1000E300A42FFFE5F03EFEE43DFD33D0E0FB5007D7
:1000F3000BBB000F0201BDEC2CFCEF33FFEE33FE14
:06010300ED33FD02019541
:1001090075F020800E75F010800575F0087D007E71
:10011900007F003392D530D503120217EC3340101B
:10012900EF33FFEE33FEED33FDEC33FCD5F0ED227A
:0E013900E5F0247EA2D513CC92E7CDCEFF22B6
:10014700EDD2E7CD33EC3392D524814006E4FFFEB0
:10015700FDFC22FCE4CFCECDCC24E0501174FF800F
:10016700EDC3CC13CCCD13CDCE13CECF13CF0470AC
:07017700F030D5DE02021793
:10017E00E9D2E7C933E833F892D5EDD2E7CD33ECC7
:07018E0033FC5002B2D52240
:10019500EC30E7100FBF000C0EBE00080DBD0004CB
:1001A5000BEB6014A2D5EB13FCED92E7FD2274FF77
:1001B500FCFDFEFF22E480F8A2D574FF13FC7D80D0
:0301C500E480EFE4
:030000000205A551
:0C05A500787FE4F6D8FD75811B02027A15
:1001C800BB010689828A83E0225002E722BBFE0235
:0901D800E32289828A83E4932268
:1001E100C2D5EC30E709B2D5E4C39DFDE49CFCEE39
:1001F10030E715B2D5E4C39FFFE49EFE120225C38A
:10020100E49DFDE49CFC800312022530D507C3E484
:060211009FFFE49EFE22A7
:0E021700C3E49FFFE49EFEE49DFDE49CFC22F8
:10022500BC000BBE0029EF8DF084FFADF022E4CCBD
:10023500F875F008EF2FFFEE33FEEC33FCEE9DEC86
:10024500984005FCEE9DFE0FD5F0E9E4CEFD22EDCC
:10025500F8F5F0EE8420D21CFEADF075F008EF2F16
:10026500FFED33FD4007985006D5F0F222C398FD07
:050275000FD5F0EA22A4
:00000001FF
