:10019B00E4FF12008FE4FF120112BF02F5B2A0B20E
:0301AB00A680EF3C
:03018500011A015B
:10011200BF0103751A01E51AB4011020B10D7FE881
:100122007E031201BCE4F51A7F0122E51AB4011024
:1001320020B00D7FA07E861201BCE4F51A7F022258
:10014200E51AB4011020B20D7FE87E031201BCE46F
:10015200F51A7F0322E51AB4011020B30D7FE87E61
:10016200031201BCE4F51A7F042230B11530B0123B
:1001720030B20F30B30C7FE87E031201BC751A0156
:020182007F05F7
:010184002258
:1001880010083F065B4F666D7D077F6F777C395E91
:0201980079717B
:10008F00E4F518F519E5187054E519B40800504D4A
:10009F009000A6F82828730200BE0200C20200C614
:1000AF000200CA0200CE0200D60200DE0200E6D233
:1000BF00A4800ED2A48012D2A48016D2A4801AC219
:1000CF00A4D2A3D2A28016C2A4D2A3C2A2800EC26F
:1000DF00A4C2A3D2A28006C2A4C2A3C2A27408253E
:1000EF0019F8E6F5807F647E001201BCE4F5800507
:1000FF0019E51970020518C39408E51864809480F7
:02010F0040832B
:0101110022CB
:0B01BC00EF1FAC0670011E4C70F62215
:0D01AE00EFD3940040077E6EDEFE1F80F34D
:0101BB002221
:03000000020003F8
:0C000300787FE4F6D8FD75811A02004AEF
:10000F0002019BE493A3F8E493A34003F68001F26B
:10001F0008DFF48029E493A3F85407240CC8C333F2
:10002F00C4540F4420C8834004F456800146F6DFC1
:10003F00E4800B0102040810204080900185E47ECB
:10004F00019360BCA3FF543F30E509541FFEE493B6
:10005F00A360010ECF54C025E060A840B8E493A37D
:10006F00FAE493A3F8E493A3C8C582C8CAC583CAA8
:10007F00F0A3C8C582C8CAC583CADFE9DEE780BE60
:01019A000064
:00000001FF
