:03011300010801DF
:040104007FE87E030F
:0B010800EF1FAC0670011E4C70F622C9
:10008F00BF0103750801E508B4010C20B109120185
:10009F0004E4F5087F0122E508B4011020B00D7FBC
:1000AF00A07E86120108E4F5087F0222E508B4015C
:1000BF000C20B209120104E4F5087F0322E508B40D
:1000CF00010C20B309120104E4F5087F042230B1BA
:1000DF001130B00E30B20B30B308120104750801A5
:0200EF007F058B
:0100F10022EC
:1000F200E4FF12008FBF02F8B2A0B2A2B2A4B2A66D
:0201020080EE8D
:03000000020003F8
:0C000300787FE4F6D8FD75810802004A01
:10000F000200F2E493A3F8E493A34003F68001F215
:10001F0008DFF48029E493A3F85407240CC8C333F2
:10002F00C4540F4420C8834004F456800146F6DFC1
:10003F00E4800B0102040810204080900113E47E3D
:10004F00019360BCA3FF543F30E509541FFEE493B6
:10005F00A360010ECF54C025E060A840B8E493A37D
:10006F00FAE493A3F8E493A3C8C582C8CAC583CAA8
:10007F00F0A3C8C582C8CAC583CADFE9DEE780BE60
:0101160000E8
:00000001FF
