:10000300E4F518F519F51AE4FF1202438F1AE51AFD
:10001300B40109AD19E4FF1203658039E51AB4028E
:100023000CE4FF1203357518008F198028E51AB404
:1000330003190519E51970020518C394FFE518940F
:100043000040127518007519FF800AE51AB40405FB
:10005300E4F518F519AE18AF197C007D641201EEB2
:100063008F1BAE18AF197C007D641201EEAA04AB9E
:10007300057D0A7C00AF03AE021201EE8F1C7D0AE0
:100083007C00AF03AE021201EE8D1D7B007A007976
:090093001B7D0612009C02000A0C
:03042E00012301A6
:10024300BF0103752301E523B4011020B10D7FE83D
:100253007E03120444E4F5237F0122E523B4011055
:1002630020B00D7FA07E86120444E4F5237F022292
:10027300E523B4011020B20D7FE87E03120444E4A9
:10028300F5237F0322E523B4011020B30D7FE87E1D
:1002930003120444E4F5237F042230B11530B01275
:1002A30030B20F30B30C7FE87E0312044475230190
:0202B3007F05C5
:0102B5002226
:1004310010083F065B4F666D7D077F6F777C395EE5
:020441007971CF
:06009C008B1E8A1F892063
:1000A200E4F521ED14F522F521E521C3940840037E
:1000B200020134E521B40800504D9000C3F828280D
:1000C200730200DB0200DF0200E30200E70200EB42
:1000D2000200F30200FB020103D2A4800ED2A4802C
:1000E20012D2A48016D2A4801AC2A4D2A3D2A28011
:1000F20016C2A4D2A3C2A2800EC2A4C2A3D2A2805C
:1001020006C2A4C2A3C2A2C3E5219522FFE49400C1
:10011200AB1EAA1FA9208F82F5831201C12408F801
:10012200E6F5807F647E00120444E4F58005210236
:0201320000AB20
:0101340022A8
:1003E900D2A1D2A07F017E00120444C2A07F017E67
:0703F90000120444C2A1221E
:1003CE00C2A07F017E00120444D2A17F017E0012E2
:0B03DE000444D2A07F017E0002044412
:10040000C2A1C2A07F017E00120444D2A17F017E5E
:0704100000120444C2A12206
:10041700C2A1D2A07F017E00120444D2A17F017E37
:0704270000120444C2A122EF
:10038E00E4F520D2A17F01FE12044430A00F052017
:10039E00E520D3946440F41203CE7F0122C2A17FE4
:0103AE00004E
:0103AF00222B
:0202B6008F2097
:1002B800E4F521C2A1F521E5205480D3940040043F
:1002C800D2A08002C2A0E52025E0F5207F017E00B3
:1002D800120444D2A17F017E00120444C2A17F010E
:0E02E8007E001204440521E521C3940840C99C
:0102F60022E5
:0202F7008F2056
:1002F900E4F521F522F521C2A17F017E0012044413
:10030900D2A1E52225E0F52230A00905227F017E50
:10031900001204440521E521C3940840DAE5207060
:0B032900051204178003120400AF222D
:0103340022A6
:100365008F1E8D1F1203E97FA01202B612038EAFF6
:100375001E1202B612038EAF1F1202B612038E12A0
:0903850003CE7F0A7E000203B0E2
:020335008F1E19
:10033700E4F51F1203E97FA01202B612038EAF1E67
:100347001202B612038E1203E97FA11202B612033C
:0D0357008EE4FF1202F78F1F1203CEAF1FBE
:010364002276
:0B044400EF1FAC0670011E4C70F6228A
:1003B000D3EF9400EE940040147D6E7C00ED1D7030
:0D03C000011CED4C70F7EF1F70E61E80E38E
:0103CD00220D
:03000000020135C5
:0C013500787FE4F6D8FD75812302017C80
:1001C100BB010CE58229F582E5833AF583E02250F3
:1001D10006E92582F8E622BBFE06E92582F8E2223D
:0D01E100E58229F582E5833AF583E4932257
:1001EE00BC000BBE0029EF8DF084FFADF022E4CCF5
:1001FE00F875F008EF2FFFEE33FEEC33FCEE9DECBE
:10020E00984005FCEE9DFE0FD5F0E9E4CEFD22ED03
:10021E00F8F5F0EE8420D21CFEADF075F008EF2F4D
:10022E00FFED33FD4007985006D5F0F222C398FD3E
:05023E000FD5F0EA22DB
:10014100020003E493A3F8E493A34003F68001F2D1
:1001510008DFF48029E493A3F85407240CC8C333BF
:10016100C4540F4420C8834004F456800146F6DF8E
:10017100E4800B010204081020408090042EE47EEC
:10018100019360BCA3FF543F30E509541FFEE49383
:10019100A360010ECF54C025E060A840B8E493A34A
:1001A100FAE493A3F8E493A3C8C582C8CAC583CA75
:1001B100F0A3C8C582C8CAC583CADFE9DEE780BE2D
:0104430000B8
:00000001FF
