:05079E0012078780FE38
:1007280011083F065B4F666D7D077F6F777C395EEA
:03073800797100D4
:0602F0008B378A388939C2
:1002F600E4F53AED14F53BF53AE53AC39408507B3C
:10030600E53AB40800504D900314F8282873020308
:100316002C02033002033402033802033C02034476
:1003260002034C020354D2A4800ED2A48012D2A49B
:100336008016D2A4801AC2A4D2A3D2A28016C2A4C6
:10034600D2A3C2A2800EC2A4C2A3D2A28006C2A415
:10035600C2A3C2A2C3E53A953BFFE49400AB37AA19
:1003660038A9398F82F5831201CDF5807F647E002E
:0B037600120793E4F580053A0202FF35
:010381002259
:10000E00C2B77F4B7E00120793D2B77F027E0002EB
:02001E00079346
:1005B000E4F54A30B712E54AC39414500B054A7F5C
:1005C000017E0012079380EBE54AC3941440037F39
:1005D0000122E4F54A20B712E54AC39414500B05F2
:1005E0004A7F017E0012079380EBE54AC3941440D2
:0605F000037F01227F00E1
:0105F60022E2
:1006EA00E4F54BC2B70000D2B7000030B705754B2E
:0F06FA00018003E4F54B7F057E00120793AF4BA1
:0107090022CD
:1006C400E4F548F549FFF5481206EAEFC43333333D
:1006D4005480FEE549C3134EF5490548E548C394E3
:0506E4000840E5AF49EC
:0106E90022EE
:0205F7008F3C37
:1005F900E4F53DF53EF53DE53C5401F53EE53CC3EA
:1006090013F53CE53E600FC2B70000D2B77F067E06
:1006190000120793800DC2B77F067E00120793D29E
:0C062900B70000053DE53DC3940840CB40
:0106350022A2
:1007590012000E1205B07FCC1205F77F440205F78F
:0700030012000E1205B022ED
:10040E00E4FFF534F535F53612075912000E1205D4
:10041E00B07FCC1205F77FBE1205F71206C48F34DB
:10042E001206C4EFFE7C00E42534F536EC3EF535BD
:10043E0054F8FEEEB4F821E536F4FFE535F4FEEFA0
:10044E002401F536E43EF535FCAD36E4120131E417
:10045E00FBFA798078BD800FAC35AD36E4120131F0
:10046E00E4FBFA7980783D1200268F338E328D317F
:0A047E008C30AF33AE32AD31AC303C
:010488002251
:0B079300EF1FAC0670011E4C70F62238
:10070A00D3EF9400EE940040147D6E7C00ED1D70D2
:0D071A00011CED4C70F7EF1F70E61E80E330
:0107270022AF
:04073B000223000095
:10074300439850438920758780758DFA858D8BC2B8
:06075300ACD2AFD28E22F1
:0E077900C2ACC2998F993099FDC299D2AC22C0
:10069A008B3F8A408941AB3FAA40A9411201B4FF6E
:1006AA0060171207797F057E0012079374012541AE
:0A06BA00F541E43540F54080DD22F3
:10076900438901758CFC758A18D2A9D2AFD28C2223
:1004890041542B43495053454E443D302C3700418C
:10049900542B43574D4F44453D320041542B43574C
:1004A9005341503D224461436875616E67222C2295
:1004B900313233343536373839222C31312C30004A
:1004C90041542B43495041503D223139322E313666
:1004D900382E342E31220041542B4349504D555862
:1004E9003D310041542B4349505345525645523DE5
:0704F900312C3830383000CF
:03073F0001250091
:100568008B458A468947AB45AA46A9471201B4FF7D
:1005780060171207797F057E0012079374012547DB
:10058800F547E43546F54680DD7F057E0012079382
:100598007F0D1207797F057E001207937F0A1207E5
:0805A800797FE87E0302070AD7
:100636008B428A4389447BFF7A047989120568AB29
:1006460042AA43A9441201B4FF60171207797F0535
:100656007E0012079374012544F544E43543F543BF
:0706660080DD7F0A02077925
:10066D007BFF7A0479981205687BFF7A0479A412CE
:10067D0005687BFF7A0479C91205687BFF7A0479D6
:0D068D00E01205687BFF7A0479EC02056835
:0C07870012074312076912066DD2AC2263
:03002300020500D3
:09050000C0E0C0D075D000C000BD
:10050900309855C29874192525F8A699E519B42B80
:100519000405258003752500E525640A703AF5254B
:10052900E52264316005E522B4320A752C00852282
:100539002DD2A08007E522B43302C2A0E52264349B
:100549006005E522B4350A752E0085222FD2A180D7
:0805590007E522B43602C2A13D
:07056100D000D0D0D0E03241
:03000B0002021ED0
:10021E00C0E0C0F0C083C082C0D075D000C000C0A6
:0D022E0001C002C003C004C005C006C00727
:10023B00758CFC758A18E52D6431452C702030A027
:10024B00490527E52770020526AE26FFE4FCFD7B5A
:10025B00E07A937904F8C3120208702E8026E52DFC
:10026B006432452C702430A0210527E52770020548
:10027B0026AE26FFE4FCFD7BC07A277909F8C31272
:10028B0002087006F526F527C2A0E52F6434452E2B
:10029B00701530A1350529E52970020528B4882A87
:1002AB00E528B41325801BE52F6435452E701B30D4
:1002BB00A1180529E52970020528B4100DE528B40D
:0A02CB002708752800752900C2A15C
:1002D500D007D006D005D004D003D002D001D0007D
:0B02E500D0D0D082D083D0F0D0E03227
:10002600EC4D6011E8497017ED33EC3304600DE4D4
:10003600FCFFFEFD22E933E8330470F802019F124B
:10004600016A58046009E4CC24815006285009024C
:1000560001A92840030201A6C0E0EB4A7044B9801A
:1000660006D0E0FB020195EF4E701CBD8008EBFF49
:10007600EAFEE9FD80EBE98DF0A4FEE5F002010F52
:10008600E9CDF9EAFEEBFFEF89F0A4FCE5F0CE89B5
:10009600F0A42EFFE435F0CD89F0A42DFEE435F072
:1000A6008067EF4E7005BD80D780C3EF8BF0A4ACA0
:1000B600F0EE8BF0A42CFCE435F0F8EF8AF0A42CDB
:1000C600E5F038FCE433CB8DF0A42CFCE5F03BF8EE
:1000D600EE8AF0A42CFCE5F038F8E433CF89F0A4DE
:1000E6002CFCE5F038CF3400CE89F0A42FFFE5F0E4
:1000F6003EFEE433C98DF0A42EFEE5F039CD8AF03C
:10010600A42FFFE5F03EFEE43DFD33D0E0FB5007B3
:100116000BBB000F0201A9EC2CFCEF33FFEE33FE04
:06012600ED33FD02018132
:10012C0075F020800E75F010800575F0087D007E4E
:10013C00007F003392D530D5031201FAEC33401016
:10014C00EF33FFEE33FEED33FDEC33FCD5F0ED2257
:0E015C00E5F0247EA2D513CC92E7CDCEFF2293
:10016A00E9D2E7C933E833F892D5EDD2E7CD33ECDB
:07017A0033FC5002B2D52254
:10018100EC30E7100FBF000C0EBE00080DBD0004DF
:100191000BEB6014A2D5EB13FCED92E7FD2274FF8B
:1001A100FCFDFEFF22E480F8A2D574FF13FC7D80E4
:0301B100E480EFF8
:0300000002038276
:0C038200787FE4F6D8FD75814B0203C9BA
:1001B400BB010689828A83E0225002E722BBFE0249
:0901C400E32289828A83E493227C
:1001CD00BB010CE58229F582E5833AF583E02250E7
:1001DD0006E92582F8E622BBFE06E92582F8E22231
:0D01ED00E58229F582E5833AF583E493224B
:0E01FA00C3E49FFFE49EFEE49DFDE49CFC2216
:10020800EB9FF5F0EA9E42F0E99D42F0EC6480C86D
:0602180064809845F0220D
:10038E0002079EE493A3F8E493A34003F68001F2E0
:10039E0008DFF48029E493A3F85407240CC8C33370
:1003AE00C4540F4420C8834004F456800146F6DF3F
:1003BE00E4800B0102040810204080900728E47EA0
:1003CE00019360BCA3FF543F30E509541FFEE49334
:1003DE00A360010ECF54C025E060A840B8E493A3FB
:1003EE00FAE493A3F8E493A3C8C582C8CAC583CA26
:1003FE00F0A3C8C582C8CAC583CADFE9DEE780BEDE
:0107420000B6
:00000001FF
