:1001CC00E4F508F509F50AF5181206DC120639E50E
:1001DC00186003B40507E4FF1204678F18E5186470
:1001EC00017068E51864036062E5186402605C12D3
:1001FC000699E52EC4540F2433F8E6F510E52E5479
:10020C000F2433F8E6F511751240E52DC4540F2474
:10021C0033F8E6F513E52D540F2433F8E6F5147591
:10022C001540E52CC4540F2433F8E6F516E52C5490
:10023C000F2433F8E6F5177B007A0079107D011254
:10024C0002CEE4FF1204678F188098E518640260F0
:10025C00030201DBE518640170030201DBE518649D
:10026C000370030201DB120699E532C4540F2433E8
:10027C00F8E6F510E532540F2433F8E6F511751253
:10028C0040E530C4540F2433F8E6F513E530540F31
:10029C002433F8E6F514751540E52FC4540F2433B8
:1002AC00F8E6F516E52F540F2433F8E6F5177B0026
:1002BC007A0079107D011202CEE4FF1204678F18C8
:0202CC0080921E
:1005E300072581838587898B8D071E808284868872
:0B05F3008A8C072C022415160101243D
:1005AE00E4FEC2B500C2B600D2B500EF1392B4EFAE
:1005BE00C313FFD2B600C2B6000EBE08EEE4FEEDC7
:1005CE001392B4EDC313FDD2B600C2B6000EBE0830
:0405DE00EEC2B500B4
:0105E20022F6
:1004DA00E4FEFDFBC2B500C2B600D2B500EF13922E
:1004EA00B4EFC313FFD2B600C2B6000EBE08EEE4E4
:1004FA00FEA2B4E433FDC43333335480FFEBC31399
:10050A004FFBD2B600C2B6000EBE08E5C2B500D295
:0A051A00B600C2B400D2B400AF0373
:0105240022B4
:10063900E4FCFD7F8E1205AE741E2CF8E6FF742CC7
:100649002CF8E6FD1205AE0CBC07ED7D807F8E020D
:0206590005AEEC
:10069900E4FC74252CF8E6FF1204DA742C2CF8A675
:0506A900070CBC07ED89
:0106AE002229
:0305FE00014F01A9
:10046700BF0103754F01E54FB4011020B10D7FE8BF
:100477007E031206D1E4F54F7F0122E54FB4011048
:1004870020B00D7FA07E861206D1E4F54F7F0222B1
:10049700E54FB4011020B20D7FE87E031206D1E4C8
:1004A700F54F7F0322E54FB4011020B30D7FE87E9F
:1004B700031206D1E4F54F7F042230B11530B01294
:1004C70030B20F30B30C7FE87E031206D1754F01AF
:0204D7007F059F
:0104D9002200
:1006AF00C2B77F4B7E001206D1D2B77F027E000207
:0206BF0006D162
:10052500E4F51930B712E519C39414500B05197F7A
:10053500017E001206D180EBE519C3941440037FB8
:100545000122E4F51920B712E519C39414500B05DF
:10055500197F017E001206D180EBE519C394144082
:06056500037F01227F006C
:01056B00226D
:0706DC001206AF12052522F2
:02056C008F4AB4
:10056E00E4F54BF54CF54BAF4BE54AA80708800276
:10057E00C313D8FC5401F54C600FC2B70000D2B7BC
:10058E007F067E001206D1800DC2B77F067E001256
:0F059E0006D1D2B70000054BE54BC3940840C807
:0105AD00222B
:10065B00E4F550C2B70000D2B7000030B7057550B3
:0F066B00018003E4F5507F057E001206D1AF50E9
:01067A00225D
:10061400E4F54DFFF54EF54D12065BAE4DEFA80621
:10062400088002C333D8FC424E054DE54DC39408FF
:0406340040E6AF4E9F
:01063800229F
:1006C1001206AF1205257FCC12056C7F4402056C22
:1003EC00E4FFF543F544F5451206C11206AF1205BC
:1003FC00257FCC12056C7FBE12056C1206148F4340
:10040C00120614EFFE7C00E42543F545EC3EF54462
:10041C0054F8FEEEB4F821E545F4FFE544F4FEEFA4
:10042C002401F545E43EF544FCAD45E412010EE42F
:10043C00FBFA798078BD800FAC44AD45E412010E17
:10044C00E4FBFA7980783D1200038F498E488D4782
:0A045C008C46AF49AE48AD47AC46F0
:010466002273
:1006010010333F065B4F666D7D077F6F777C395EE8
:020611007971FD
:0602CE008B198A1A891B3E
:1002D400E4F51CED14F51DF51CE51CC39408507BD6
:1002E400E51CB40800504D9002F2F828287302036C
:1002F4000A02030E02031202031602031A02032265
:1003040002032A020332D2A4800ED2A48012D2A401
:100314008016D2A4801AC2A4D2A3D2A28016C2A4E8
:10032400D2A3C2A2800EC2A4C2A3D2A28006C2A437
:10033400C2A3C2A2C3E51C951DFFE49400AB19AA95
:100344001AA91B8F82F583120191F5807F647E00C8
:0B0354001206D1E4F580051C0202DD5A
:01035F00227B
:0B06D100EF1FAC0670011E4C70F622FB
:10067B00D3EF9400EE940040147D6E7C00ED1D7062
:0D068B00011CED4C70F7EF1F70E61E80E3C0
:01069800223F
:10000300EC4D6011E8497017ED33EC3304600DE4F7
:10001300FCFFFEFD22E933E8330470F802017C1291
:10002300014758046009E4CC248150062850090292
:100033000186284003020183C0E0EB4A7044B98083
:1000430006D0E0FB020172EF4E701CBD8008EBFF8F
:10005300EAFEE9FD80EBE98DF0A4FEE5F00200EC99
:10006300E9CDF9EAFEEBFFEF89F0A4FCE5F0CE89D8
:10007300F0A42EFFE435F0CD89F0A42DFEE435F095
:100083008067EF4E7005BD80D780C3EF8BF0A4ACC3
:10009300F0EE8BF0A42CFCE435F0F8EF8AF0A42CFE
:1000A300E5F038FCE433CB8DF0A42CFCE5F03BF811
:1000B300EE8AF0A42CFCE5F038F8E433CF89F0A401
:1000C3002CFCE5F038CF3400CE89F0A42FFFE5F007
:1000D3003EFEE433C98DF0A42EFEE5F039CD8AF05F
:1000E300A42FFFE5F03EFEE43DFD33D0E0FB5007D7
:1000F3000BBB000F020186EC2CFCEF33FFEE33FE4B
:06010300ED33FD02015E78
:1001090075F020800E75F010800575F0087D007E71
:10011900007F003392D530D5031201BEEC33401075
:10012900EF33FFEE33FEED33FDEC33FCD5F0ED227A
:0E013900E5F0247EA2D513CC92E7CDCEFF22B6
:10014700E9D2E7C933E833F892D5EDD2E7CD33ECFE
:0701570033FC5002B2D52277
:10015E00EC30E7100FBF000C0EBE00080DBD000402
:10016E000BEB6014A2D5EB13FCED92E7FD2274FFAE
:10017E00FCFDFEFF22E480F8A2D574FF13FC7D8007
:03018E00E480EF1B
:0300000002036098
:0C036000787FE4F6D8FD7581500203A7F9
:10019100BB010CE58229F582E5833AF583E0225023
:1001A10006E92582F8E622BBFE06E92582F8E2226D
:0D01B100E58229F582E5833AF583E4932287
:0E01BE00C3E49FFFE49EFEE49DFDE49CFC2252
:10036C000201CCE493A3F8E493A34003F68001F2DA
:10037C0008DFF48029E493A3F85407240CC8C33392
:10038C00C4540F4420C8834004F456800146F6DF61
:10039C00E4800B01020408102040809005E3E47E09
:1003AC00019360BCA3FF543F30E509541FFEE49356
:1003BC00A360010ECF54C025E060A840B8E493A31D
:1003CC00FAE493A3F8E493A3C8C582C8CAC583CA48
:1003DC00F0A3C8C582C8CAC583CADFE9DEE780BE00
:0106130000E6
:00000001FF
