:030000000201BA40
:0C01BA00787FE4F6D8FD75814202020156
:0C041200C103C100C104C105C101C10249
:1003CC007590FFC2907FE8120401C2A77F0A120445
:1003DC0001D2A7C2A0C288D2A8D2AFC2907F2C12E1
:0503EC000401D2902283
:10024600750AFF750B01750CFF750DFF750EFFE442
:10025600F50F7510FF7511FF90FE007409F090FE02
:100266001F74C8F090FE067401F0A3741BF090FE94
:10027600047401F090FE08741AF090FE017404F004
:1002860090FE10E50AF0A3E50BF0A3E50CF0A3E55C
:100296000DF0A3E50EF0A3E50FF0A3E510F0A3E53E
:1002A60011F090FE007408F0C2917FC8120401D2CA
:0F02B600917FC8120401C2917FC8120401D29136
:0102C5002216
:030003000202C630
:1002C600C0E0C083C082C0D075D000C004C005C0E5
:0302D60006C00758
:1002D900C2AFC28990FE11E0FFF519A3E0FEF51740
:1002E900A3E0FDF51890FE03E030E01C90FE10E05D
:1002F900F5228F238E248D2590FE14E0F526A3E0A8
:10030900F527A3E0F528D20090FE017404F090FED1
:08031900047401F0D2AFD2A878
:10032100D007D006D005D004D0D0D082D083D0E081
:010331003299
:10038400AF27AE28BF0111BE0108C2A1C200D2032B
:100394008006D2A1C200C203BF020DBE0106C2A2E2
:1003A400C2008004D2A2C200BF030DBE0106C2A5D2
:1003B400C2008004D2A5C200BF040CBE0105C2A6BF
:0703C400C20022D2A5C20015
:0103CB00220F
:090332007509017F02AB09AD0859
:10033B00750A82750B018F0C750D10E4F50EF540E7
:10034B008D0F8B1090FE02E020E42D30E32A30E27B
:10035B002790FE10E50AF0A3E50BF0A3E50CF0A344
:10036B00E50DF0A3E50EF0A3E50FF0A3E510F07596
:08037B00400190FE017401F045
:010383002257
:1003F1007FF4120401D2927FF4120401C2927FF4BD
:10040100AD071FED600A7EFFAD061EED60F280F8BC
:0104110022C8
:10000600C2907F101204011203CC120246E4F53EA0
:10001600F53DF53FF53CF541F52175A0FF7C012046
:10002600A11FE53E704AC2937C037508017509015C
:100036007F031203377FF4120401D293753E0180C9
:100046002F30A12CE53E64017026C2937C0375080F
:1000560001F5097F031203377FF4120401D2937F5F
:10006600F4120401C2937FF4120401D293E4F53E24
:1000760020A21FE53D704AC2937C037508027509EC
:10008600017F031203377FF4120401D293753D01F9
:10009600802F30A22CE53D64017026C2937C037547
:1000A6000802F5097F031203377FF4120401D29385
:1000B6007FF4120401C2937FF4120401D293E4F593
:1000C6003D20A31AE53F7033C2927C0275080312E5
:1000D60003327FF4120401D292753F01801D30A3D2
:1000E6001AE53F64017014C2927C02750803F50993
:1000F6001203351203F1D292E4F53F20A41AE53C2F
:100106007033C2927C027508041203327FF4120423
:1001160001D292753C01801D30A41AE53C64017041
:1001260014C2927C02750804F5091203351203F114
:10013600D292E4F53C20A51AE5417033C2927C02C6
:100146007508051203327FF4120401D2927541013B
:10015600801D30A51AE54164017014C2927C0275B7
:100166000805F5091203351203F1D292E4F5412090
:10017600A61EE5216003020025C2927C02750806D0
:100186001203327FF4120401D29275210102002576
:1001960020A603020025E52164016003020025C2B2
:1001A60092750806F5091203351203F1D292E4F5A9
:0401B60021020025FD
:1001C600020006E493A3F8E493A34003F68001F249
:1001D60008DFF48029E493A3F85407240CC8C3333A
:1001E600C4540F4420C8834004F456800146F6DF09
:1001F600E4800B0102040810204080900412E47E83
:10020600019360BCA3FF543F30E509541FFEE493FD
:10021600A360010ECF54C025E060A840B8E493A3C4
:10022600FAE493A3F8E493A3C8C582C8CAC583CAEF
:10023600F0A3C8C582C8CAC583CADFE9DEE780BEA7
:01041E0000DD
:00000001FF
